{
  "_format": "hh-sol-artifact-1",
  "contractName": "Manager",
  "sourceName": "contracts/base/Manager.sol",
  "abi": [
    {
      "inputs": [
        {
          "internalType": "address",
          "name": "_governanceCouncil",
          "type": "address"
        },
        {
          "internalType": "address",
          "name": "_integrationCouncil",
          "type": "address"
        },
        {
          "internalType": "address",
          "name": "_nonProfitCouncil",
          "type": "address"
        }
      ],
      "stateMutability": "nonpayable",
      "type": "constructor"
    },
    {
      "anonymous": false,
      "inputs": [
        {
          "indexed": false,
          "internalType": "address",
          "name": "pool",
          "type": "address"
        },
        {
          "indexed": false,
          "internalType": "address",
          "name": "nonProfit",
          "type": "address"
        },
        {
          "indexed": false,
          "internalType": "address",
          "name": "integration",
          "type": "address"
        },
        {
          "indexed": false,
          "internalType": "string",
          "name": "_donation_batch",
          "type": "string"
        },
        {
          "indexed": false,
          "internalType": "uint256",
          "name": "amount",
          "type": "uint256"
        }
      ],
      "name": "DonationAdded",
      "type": "event"
    },
    {
      "anonymous": false,
      "inputs": [
        {
          "indexed": false,
          "internalType": "address",
          "name": "governanceCouncil",
          "type": "address"
        }
      ],
      "name": "GovernanceCouncilChanged",
      "type": "event"
    },
    {
      "anonymous": false,
      "inputs": [
        {
          "indexed": false,
          "internalType": "address",
          "name": "integration",
          "type": "address"
        },
        {
          "indexed": false,
          "internalType": "uint256",
          "name": "amount",
          "type": "uint256"
        }
      ],
      "name": "IntegrationBalanceAdded",
      "type": "event"
    },
    {
      "anonymous": false,
      "inputs": [
        {
          "indexed": false,
          "internalType": "address",
          "name": "integration",
          "type": "address"
        },
        {
          "indexed": false,
          "internalType": "uint256",
          "name": "amount",
          "type": "uint256"
        }
      ],
      "name": "IntegrationBalanceRemoved",
      "type": "event"
    },
    {
      "anonymous": false,
      "inputs": [
        {
          "indexed": false,
          "internalType": "address",
          "name": "integrationCouncil",
          "type": "address"
        }
      ],
      "name": "IntegrationCouncilChanged",
      "type": "event"
    },
    {
      "anonymous": false,
      "inputs": [
        {
          "indexed": false,
          "internalType": "address",
          "name": "pool",
          "type": "address"
        },
        {
          "indexed": false,
          "internalType": "address",
          "name": "nonProfit",
          "type": "address"
        }
      ],
      "name": "NonProfitAdded",
      "type": "event"
    },
    {
      "anonymous": false,
      "inputs": [
        {
          "indexed": false,
          "internalType": "address",
          "name": "nonProfitCouncil",
          "type": "address"
        }
      ],
      "name": "NonProfitCouncilChanged",
      "type": "event"
    },
    {
      "anonymous": false,
      "inputs": [
        {
          "indexed": false,
          "internalType": "address",
          "name": "pool",
          "type": "address"
        },
        {
          "indexed": false,
          "internalType": "address",
          "name": "nonProfit",
          "type": "address"
        }
      ],
      "name": "NonProfitRemoved",
      "type": "event"
    },
    {
      "anonymous": false,
      "inputs": [
        {
          "indexed": false,
          "internalType": "address",
          "name": "promoter",
          "type": "address"
        },
        {
          "indexed": false,
          "internalType": "address",
          "name": "pool",
          "type": "address"
        },
        {
          "indexed": false,
          "internalType": "uint256",
          "name": "amount",
          "type": "uint256"
        }
      ],
      "name": "PoolBalanceIncreased",
      "type": "event"
    },
    {
      "anonymous": false,
      "inputs": [
        {
          "indexed": false,
          "internalType": "address",
          "name": "pool",
          "type": "address"
        },
        {
          "indexed": false,
          "internalType": "address",
          "name": "wallet",
          "type": "address"
        }
      ],
      "name": "PoolBalanceTransfered",
      "type": "event"
    },
    {
      "anonymous": false,
      "inputs": [
        {
          "indexed": false,
          "internalType": "address",
          "name": "pool",
          "type": "address"
        },
        {
          "indexed": false,
          "internalType": "address",
          "name": "token",
          "type": "address"
        }
      ],
      "name": "PoolCreated",
      "type": "event"
    },
    {
      "inputs": [
        {
          "internalType": "address",
          "name": "_integration",
          "type": "address"
        },
        {
          "internalType": "uint256",
          "name": "_amount",
          "type": "uint256"
        }
      ],
      "name": "addIntegrationBalance",
      "outputs": [],
      "stateMutability": "nonpayable",
      "type": "function"
    },
    {
      "inputs": [
        {
          "internalType": "address",
          "name": "_pool",
          "type": "address"
        },
        {
          "internalType": "address",
          "name": "_nonProfit",
          "type": "address"
        }
      ],
      "name": "addNonProfitToWhitelist",
      "outputs": [],
      "stateMutability": "nonpayable",
      "type": "function"
    },
    {
      "inputs": [
        {
          "internalType": "address",
          "name": "_pool",
          "type": "address"
        },
        {
          "internalType": "uint256",
          "name": "_amount",
          "type": "uint256"
        }
      ],
      "name": "addPoolBalance",
      "outputs": [],
      "stateMutability": "nonpayable",
      "type": "function"
    },
    {
      "inputs": [
        {
          "internalType": "address",
          "name": "_token",
          "type": "address"
        }
      ],
      "name": "createPool",
      "outputs": [
        {
          "internalType": "address",
          "name": "",
          "type": "address"
        }
      ],
      "stateMutability": "nonpayable",
      "type": "function"
    },
    {
      "inputs": [
        {
          "internalType": "address",
          "name": "_pool",
          "type": "address"
        },
        {
          "internalType": "address",
          "name": "_nonProfit",
          "type": "address"
        },
        {
          "internalType": "address",
          "name": "_integration",
          "type": "address"
        },
        {
          "internalType": "string",
          "name": "_donation_batch",
          "type": "string"
        },
        {
          "internalType": "uint256",
          "name": "_amount",
          "type": "uint256"
        }
      ],
      "name": "donateThroughIntegration",
      "outputs": [],
      "stateMutability": "nonpayable",
      "type": "function"
    },
    {
      "inputs": [
        {
          "internalType": "uint256",
          "name": "_index",
          "type": "uint256"
        },
        {
          "internalType": "uint256",
          "name": "_length",
          "type": "uint256"
        }
      ],
      "name": "fetchPools",
      "outputs": [
        {
          "internalType": "address[]",
          "name": "_pools",
          "type": "address[]"
        },
        {
          "internalType": "uint256",
          "name": "_newIndex",
          "type": "uint256"
        }
      ],
      "stateMutability": "view",
      "type": "function"
    },
    {
      "inputs": [],
      "name": "governanceCouncil",
      "outputs": [
        {
          "internalType": "address",
          "name": "",
          "type": "address"
        }
      ],
      "stateMutability": "view",
      "type": "function"
    },
    {
      "inputs": [],
      "name": "integrationCouncil",
      "outputs": [
        {
          "internalType": "address",
          "name": "",
          "type": "address"
        }
      ],
      "stateMutability": "view",
      "type": "function"
    },
    {
      "inputs": [
        {
          "internalType": "address",
          "name": "",
          "type": "address"
        }
      ],
      "name": "integrations",
      "outputs": [
        {
          "internalType": "uint256",
          "name": "",
          "type": "uint256"
        }
      ],
      "stateMutability": "view",
      "type": "function"
    },
    {
      "inputs": [],
      "name": "nonProfitCouncil",
      "outputs": [
        {
          "internalType": "address",
          "name": "",
          "type": "address"
        }
      ],
      "stateMutability": "view",
      "type": "function"
    },
    {
      "inputs": [
        {
          "internalType": "uint256",
          "name": "",
          "type": "uint256"
        }
      ],
      "name": "pools",
      "outputs": [
        {
          "internalType": "address",
          "name": "",
          "type": "address"
        }
      ],
      "stateMutability": "view",
      "type": "function"
    },
    {
      "inputs": [
        {
          "internalType": "address",
          "name": "_integration",
          "type": "address"
        },
        {
          "internalType": "uint256",
          "name": "_amount",
          "type": "uint256"
        }
      ],
      "name": "removeIntegrationBalance",
      "outputs": [],
      "stateMutability": "nonpayable",
      "type": "function"
    },
    {
      "inputs": [
        {
          "internalType": "address",
          "name": "_pool",
          "type": "address"
        },
        {
          "internalType": "address",
          "name": "_nonProfit",
          "type": "address"
        }
      ],
      "name": "removeNonProfitFromWhitelist",
      "outputs": [],
      "stateMutability": "nonpayable",
      "type": "function"
    },
    {
      "inputs": [
        {
          "internalType": "address",
          "name": "_governanceCouncil",
          "type": "address"
        }
      ],
      "name": "setGovernanceCouncil",
      "outputs": [],
      "stateMutability": "nonpayable",
      "type": "function"
    },
    {
      "inputs": [
        {
          "internalType": "address",
          "name": "_integrationCouncil",
          "type": "address"
        }
      ],
      "name": "setIntegrationCouncil",
      "outputs": [],
      "stateMutability": "nonpayable",
      "type": "function"
    },
    {
      "inputs": [
        {
          "internalType": "address",
          "name": "_nonProfitCouncil",
          "type": "address"
        }
      ],
      "name": "setNonProfitCouncil",
      "outputs": [],
      "stateMutability": "nonpayable",
      "type": "function"
    },
    {
      "inputs": [
        {
          "internalType": "address",
          "name": "_pool",
          "type": "address"
        },
        {
          "internalType": "address",
          "name": "_wallet",
          "type": "address"
        }
      ],
      "name": "transferPoolBalance",
      "outputs": [],
      "stateMutability": "nonpayable",
      "type": "function"
    }
  ],
  "bytecode": "0x60806040523480156200001157600080fd5b5060405162003c8b38038062003c8b83398181016040528101906200003791906200016c565b82600260006101000a81548173ffffffffffffffffffffffffffffffffffffffff021916908373ffffffffffffffffffffffffffffffffffffffff160217905550816000806101000a81548173ffffffffffffffffffffffffffffffffffffffff021916908373ffffffffffffffffffffffffffffffffffffffff16021790555080600160006101000a81548173ffffffffffffffffffffffffffffffffffffffff021916908373ffffffffffffffffffffffffffffffffffffffff160217905550505050620001c8565b600080fd5b600073ffffffffffffffffffffffffffffffffffffffff82169050919050565b6000620001348262000107565b9050919050565b620001468162000127565b81146200015257600080fd5b50565b60008151905062000166816200013b565b92915050565b60008060006060848603121562000188576200018762000102565b5b6000620001988682870162000155565b9350506020620001ab8682870162000155565b9250506040620001be8682870162000155565b9150509250925092565b613ab380620001d86000396000f3fe60806040523480156200001157600080fd5b5060043610620001245760003560e01c80638f0e54d811620000b1578063c281605d116200007b578063c281605d1462000308578063cb688b7c1462000328578063deb1631f1462000348578063eba97eaa1462000368578063f868858114620003885762000124565b80638f0e54d8146200025c5780639049f9d2146200027c578063ac4afa3814620002b2578063b1cca73314620002e85762000124565b806334aca83e11620000f357806334aca83e14620001c357806354578ae214620001fa57806356dd3a16146200021a57806373da40c7146200023a5762000124565b806305e647941462000129578063132fdb0b146200015f57806317698eee14620001815780631adef45d14620001a3575b600080fd5b620001476004803603810190620001419190620018f3565b620003a8565b60405162000156919062001940565b60405180910390f35b62000169620003c0565b6040516200017891906200196e565b60405180910390f35b6200018b620003e4565b6040516200019a91906200196e565b60405180910390f35b620001c16004803603810190620001bb9190620018f3565b6200040a565b005b620001e16004803603810190620001db9190620019bc565b6200053c565b604051620001f192919062001ad1565b60405180910390f35b62000218600480360381019062000212919062001b05565b6200069c565b005b620002386004803603810190620002329190620018f3565b620007e3565b005b6200024462000912565b6040516200025391906200196e565b60405180910390f35b6200027a600480360381019062000274919062001b4c565b62000938565b005b6200029a6004803603810190620002949190620018f3565b62000a6b565b604051620002a991906200196e565b60405180910390f35b620002d06004803603810190620002ca919062001b93565b62000be6565b604051620002df91906200196e565b60405180910390f35b62000306600480360381019062000300919062001d27565b62000c26565b005b62000326600480360381019062000320919062001b4c565b62000e0a565b005b62000346600480360381019062000340919062001b05565b62000ffd565b005b62000366600480360381019062000360919062001b4c565b62001144565b005b620003866004803603810190620003809190620018f3565b620012b2565b005b620003a66004803603810190620003a0919062001b05565b620013e4565b005b60036020528060005260406000206000915090505481565b60008054906101000a900473ffffffffffffffffffffffffffffffffffffffff1681565b600260009054906101000a900473ffffffffffffffffffffffffffffffffffffffff1681565b600260009054906101000a900473ffffffffffffffffffffffffffffffffffffffff1673ffffffffffffffffffffffffffffffffffffffff163373ffffffffffffffffffffffffffffffffffffffff16146200049d576040517f08c379a0000000000000000000000000000000000000000000000000000000008152600401620004949062001e55565b60405180910390fd5b80600160006101000a81548173ffffffffffffffffffffffffffffffffffffffff021916908373ffffffffffffffffffffffffffffffffffffffff1602179055507f025ddf3311f56ecb14f15fc5c828d3f4dce0ab6c9b6a3391ccf46fb953075049600160009054906101000a900473ffffffffffffffffffffffffffffffffffffffff166040516200053191906200196e565b60405180910390a150565b606060008360048054905062000553919062001ea6565b8311156200057157836004805490506200056e919062001ea6565b92505b8267ffffffffffffffff8111156200058e576200058d62001be0565b5b604051908082528060200260200182016040528015620005bd5781602001602082028036833780820191505090505b50915060005b83811015620006815760048186620005dc919062001ee1565b81548110620005f057620005ef62001f3e565b5b9060005260206000200160009054906101000a900473ffffffffffffffffffffffffffffffffffffffff1683828151811062000631576200063062001f3e565b5b602002602001019073ffffffffffffffffffffffffffffffffffffffff16908173ffffffffffffffffffffffffffffffffffffffff16815250508080620006789062001f6d565b915050620005c3565b5081838562000691919062001ee1565b915091509250929050565b600260009054906101000a900473ffffffffffffffffffffffffffffffffffffffff1673ffffffffffffffffffffffffffffffffffffffff163373ffffffffffffffffffffffffffffffffffffffff16146200072f576040517f08c379a0000000000000000000000000000000000000000000000000000000008152600401620007269062001e55565b60405180910390fd5b60008290508073ffffffffffffffffffffffffffffffffffffffff166363b6b31f836040518263ffffffff1660e01b81526004016200076f91906200196e565b600060405180830381600087803b1580156200078a57600080fd5b505af11580156200079f573d6000803e3d6000fd5b505050507fdb72e41f6fd4c6fd7a5be5ef58e126fea8e3ae75a3d6e32e4f8517449ad23c728383604051620007d692919062001fba565b60405180910390a1505050565b600260009054906101000a900473ffffffffffffffffffffffffffffffffffffffff1673ffffffffffffffffffffffffffffffffffffffff163373ffffffffffffffffffffffffffffffffffffffff161462000876576040517f08c379a00000000000000000000000000000000000000000000000000000000081526004016200086d9062001e55565b60405180910390fd5b806000806101000a81548173ffffffffffffffffffffffffffffffffffffffff021916908373ffffffffffffffffffffffffffffffffffffffff1602179055507f080c9357b0cd10dcf418047ae7b7bf2460dfb605c7dbf335015ba38e181197fb60008054906101000a900473ffffffffffffffffffffffffffffffffffffffff166040516200090791906200196e565b60405180910390a150565b600160009054906101000a900473ffffffffffffffffffffffffffffffffffffffff1681565b600081116200097e576040517f08c379a0000000000000000000000000000000000000000000000000000000008152600401620009759062002037565b60405180910390fd5b600082905060008173ffffffffffffffffffffffffffffffffffffffff1663fc0c546a6040518163ffffffff1660e01b8152600401602060405180830381865afa158015620009d1573d6000803e3d6000fd5b505050506040513d601f19601f82011682018060405250810190620009f791906200209e565b905062000a283385858473ffffffffffffffffffffffffffffffffffffffff166200152b909392919063ffffffff16565b7f68ff2aa0443744f41b90cd3bdb18921eaf2afaa113bd0d1320b3c21a6916c74c33858560405162000a5d93929190620020d0565b60405180910390a150505050565b6000600160009054906101000a900473ffffffffffffffffffffffffffffffffffffffff1673ffffffffffffffffffffffffffffffffffffffff163373ffffffffffffffffffffffffffffffffffffffff161462000b00576040517f08c379a000000000000000000000000000000000000000000000000000000000815260040162000af79062002183565b60405180910390fd5b6000823360405162000b12906200186c565b62000b1f92919062001fba565b604051809103906000f08015801562000b3c573d6000803e3d6000fd5b5090506004819080600181540180825580915050600190039060005260206000200160009091909190916101000a81548173ffffffffffffffffffffffffffffffffffffffff021916908373ffffffffffffffffffffffffffffffffffffffff1602179055507f4f2ce4e40f623ca765fc0167a25cb7842ceaafb8d82d3dec26ca0d0e0d2d4896818460405162000bd592919062001fba565b60405180910390a180915050919050565b6004818154811062000bf757600080fd5b906000526020600020016000915054906101000a900473ffffffffffffffffffffffffffffffffffffffff1681565b80600360003373ffffffffffffffffffffffffffffffffffffffff1673ffffffffffffffffffffffffffffffffffffffff16815260200190815260200160002054101562000cab576040517f08c379a000000000000000000000000000000000000000000000000000000000815260040162000ca290620021f5565b60405180910390fd5b6000811162000cf1576040517f08c379a000000000000000000000000000000000000000000000000000000000815260040162000ce89062002037565b60405180910390fd5b80600360003373ffffffffffffffffffffffffffffffffffffffff1673ffffffffffffffffffffffffffffffffffffffff168152602001908152602001600020600082825462000d42919062001ea6565b9250508190555060008590508073ffffffffffffffffffffffffffffffffffffffff16638d4af16e8686856040518463ffffffff1660e01b815260040162000d8d93929190620020d0565b600060405180830381600087803b15801562000da857600080fd5b505af115801562000dbd573d6000803e3d6000fd5b505050507f2fe3caa5e8aafaae3871e51abfa7a5eece0e884c4ebc7f1914e369afec1094f5868686868660405162000dfa95949392919062002299565b60405180910390a1505050505050565b60008054906101000a900473ffffffffffffffffffffffffffffffffffffffff1673ffffffffffffffffffffffffffffffffffffffff163373ffffffffffffffffffffffffffffffffffffffff161462000e9b576040517f08c379a000000000000000000000000000000000000000000000000000000000815260040162000e929062002373565b60405180910390fd5b80600360008473ffffffffffffffffffffffffffffffffffffffff1673ffffffffffffffffffffffffffffffffffffffff16815260200190815260200160002054101562000f20576040517f08c379a000000000000000000000000000000000000000000000000000000000815260040162000f17906200240b565b60405180910390fd5b6000811162000f66576040517f08c379a000000000000000000000000000000000000000000000000000000000815260040162000f5d9062002037565b60405180910390fd5b80600360008473ffffffffffffffffffffffffffffffffffffffff1673ffffffffffffffffffffffffffffffffffffffff168152602001908152602001600020600082825462000fb7919062001ea6565b925050819055507f9bf19fcaed3216b249d549bbd10270c5ccb0e8af4b6b33387f21aa9969e56aac828260405162000ff19291906200242d565b60405180910390a15050565b600160009054906101000a900473ffffffffffffffffffffffffffffffffffffffff1673ffffffffffffffffffffffffffffffffffffffff163373ffffffffffffffffffffffffffffffffffffffff161462001090576040517f08c379a0000000000000000000000000000000000000000000000000000000008152600401620010879062002183565b60405180910390fd5b60008290508073ffffffffffffffffffffffffffffffffffffffff166350237c89836040518263ffffffff1660e01b8152600401620010d091906200196e565b600060405180830381600087803b158015620010eb57600080fd5b505af115801562001100573d6000803e3d6000fd5b505050507f446f98e2ea04ca52a95af1804f700682f720bae1def76ab4e1b4793fb517909c83836040516200113792919062001fba565b60405180910390a1505050565b60008054906101000a900473ffffffffffffffffffffffffffffffffffffffff1673ffffffffffffffffffffffffffffffffffffffff163373ffffffffffffffffffffffffffffffffffffffff1614620011d5576040517f08c379a0000000000000000000000000000000000000000000000000000000008152600401620011cc9062002373565b60405180910390fd5b600081116200121b576040517f08c379a0000000000000000000000000000000000000000000000000000000008152600401620012129062002037565b60405180910390fd5b80600360008473ffffffffffffffffffffffffffffffffffffffff1673ffffffffffffffffffffffffffffffffffffffff16815260200190815260200160002060008282546200126c919062001ee1565b925050819055507f777ef5eaabef3886e23f4fb05ad8db9f4b8d00a08fddf565c4fee2e02fb9fc618282604051620012a69291906200242d565b60405180910390a15050565b600260009054906101000a900473ffffffffffffffffffffffffffffffffffffffff1673ffffffffffffffffffffffffffffffffffffffff163373ffffffffffffffffffffffffffffffffffffffff161462001345576040517f08c379a00000000000000000000000000000000000000000000000000000000081526004016200133c9062001e55565b60405180910390fd5b80600260006101000a81548173ffffffffffffffffffffffffffffffffffffffff021916908373ffffffffffffffffffffffffffffffffffffffff1602179055507f4b85d278d7fab37dd38da666a3f2e8a3a8191b57d24327bffa8e66a60f698a69600260009054906101000a900473ffffffffffffffffffffffffffffffffffffffff16604051620013d991906200196e565b60405180910390a150565b600160009054906101000a900473ffffffffffffffffffffffffffffffffffffffff1673ffffffffffffffffffffffffffffffffffffffff163373ffffffffffffffffffffffffffffffffffffffff161462001477576040517f08c379a00000000000000000000000000000000000000000000000000000000081526004016200146e9062002183565b60405180910390fd5b60008290508073ffffffffffffffffffffffffffffffffffffffff16632e11f00a836040518263ffffffff1660e01b8152600401620014b791906200196e565b600060405180830381600087803b158015620014d257600080fd5b505af1158015620014e7573d6000803e3d6000fd5b505050507f446f98e2ea04ca52a95af1804f700682f720bae1def76ab4e1b4793fb517909c83836040516200151e92919062001fba565b60405180910390a1505050565b620015b2846323b872dd60e01b8585856040516024016200154f93929190620020d0565b604051602081830303815290604052907bffffffffffffffffffffffffffffffffffffffffffffffffffffffff19166020820180517bffffffffffffffffffffffffffffffffffffffffffffffffffffffff8381831617835250505050620015b8565b50505050565b60006200161c826040518060400160405280602081526020017f5361666545524332303a206c6f772d6c6576656c2063616c6c206661696c65648152508573ffffffffffffffffffffffffffffffffffffffff16620016879092919063ffffffff16565b90506000815111156200168257808060200190518101906200163f919062002497565b62001681576040517f08c379a000000000000000000000000000000000000000000000000000000000815260040162001678906200253f565b60405180910390fd5b5b505050565b6060620016988484600085620016a1565b90509392505050565b606082471015620016e9576040517f08c379a0000000000000000000000000000000000000000000000000000000008152600401620016e090620025d7565b60405180910390fd5b6000808673ffffffffffffffffffffffffffffffffffffffff16858760405162001714919062002646565b60006040518083038185875af1925050503d806000811462001753576040519150601f19603f3d011682016040523d82523d6000602084013e62001758565b606091505b50915091506200176b8783838762001777565b92505050949350505050565b60608315620017e1576000835103620017d8576200179585620017f6565b620017d7576040517f08c379a0000000000000000000000000000000000000000000000000000000008152600401620017ce90620026af565b60405180910390fd5b5b829050620017ee565b620017ed838362001819565b5b949350505050565b6000808273ffffffffffffffffffffffffffffffffffffffff163b119050919050565b6000825111156200182d5781518083602001fd5b806040517f08c379a0000000000000000000000000000000000000000000000000000000008152600401620018639190620026d1565b60405180910390fd5b61138880620026f683390190565b6000604051905090565b600080fd5b600080fd5b600073ffffffffffffffffffffffffffffffffffffffff82169050919050565b6000620018bb826200188e565b9050919050565b620018cd81620018ae565b8114620018d957600080fd5b50565b600081359050620018ed81620018c2565b92915050565b6000602082840312156200190c576200190b62001884565b5b60006200191c84828501620018dc565b91505092915050565b6000819050919050565b6200193a8162001925565b82525050565b60006020820190506200195760008301846200192f565b92915050565b6200196881620018ae565b82525050565b60006020820190506200198560008301846200195d565b92915050565b620019968162001925565b8114620019a257600080fd5b50565b600081359050620019b6816200198b565b92915050565b60008060408385031215620019d657620019d562001884565b5b6000620019e685828601620019a5565b9250506020620019f985828601620019a5565b9150509250929050565b600081519050919050565b600082825260208201905092915050565b6000819050602082019050919050565b62001a3a81620018ae565b82525050565b600062001a4e838362001a2f565b60208301905092915050565b6000602082019050919050565b600062001a748262001a03565b62001a80818562001a0e565b935062001a8d8362001a1f565b8060005b8381101562001ac457815162001aa8888262001a40565b975062001ab58362001a5a565b92505060018101905062001a91565b5085935050505092915050565b6000604082019050818103600083015262001aed818562001a67565b905062001afe60208301846200192f565b9392505050565b6000806040838503121562001b1f5762001b1e62001884565b5b600062001b2f85828601620018dc565b925050602062001b4285828601620018dc565b9150509250929050565b6000806040838503121562001b665762001b6562001884565b5b600062001b7685828601620018dc565b925050602062001b8985828601620019a5565b9150509250929050565b60006020828403121562001bac5762001bab62001884565b5b600062001bbc84828501620019a5565b91505092915050565b600080fd5b600080fd5b6000601f19601f8301169050919050565b7f4e487b7100000000000000000000000000000000000000000000000000000000600052604160045260246000fd5b62001c1a8262001bcf565b810181811067ffffffffffffffff8211171562001c3c5762001c3b62001be0565b5b80604052505050565b600062001c516200187a565b905062001c5f828262001c0f565b919050565b600067ffffffffffffffff82111562001c825762001c8162001be0565b5b62001c8d8262001bcf565b9050602081019050919050565b82818337600083830152505050565b600062001cc062001cba8462001c64565b62001c45565b90508281526020810184848401111562001cdf5762001cde62001bca565b5b62001cec84828562001c9a565b509392505050565b600082601f83011262001d0c5762001d0b62001bc5565b5b813562001d1e84826020860162001ca9565b91505092915050565b600080600080600060a0868803121562001d465762001d4562001884565b5b600062001d5688828901620018dc565b955050602062001d6988828901620018dc565b945050604062001d7c88828901620018dc565b935050606086013567ffffffffffffffff81111562001da05762001d9f62001889565b5b62001dae8882890162001cf4565b925050608062001dc188828901620019a5565b9150509295509295909350565b600082825260208201905092915050565b7f596f7520617265206e6f742074686520676f7665726e616e636520636f756e6360008201527f696c000000000000000000000000000000000000000000000000000000000000602082015250565b600062001e3d60228362001dce565b915062001e4a8262001ddf565b604082019050919050565b6000602082019050818103600083015262001e708162001e2e565b9050919050565b7f4e487b7100000000000000000000000000000000000000000000000000000000600052601160045260246000fd5b600062001eb38262001925565b915062001ec08362001925565b92508282101562001ed65762001ed562001e77565b5b828203905092915050565b600062001eee8262001925565b915062001efb8362001925565b9250827fffffffffffffffffffffffffffffffffffffffffffffffffffffffffffffffff0382111562001f335762001f3262001e77565b5b828201905092915050565b7f4e487b7100000000000000000000000000000000000000000000000000000000600052603260045260246000fd5b600062001f7a8262001925565b91507fffffffffffffffffffffffffffffffffffffffffffffffffffffffffffffffff820362001faf5762001fae62001e77565b5b600182019050919050565b600060408201905062001fd160008301856200195d565b62001fe060208301846200195d565b9392505050565b7f416d6f756e74206d7573742062652067726561746572207468616e2030000000600082015250565b60006200201f601d8362001dce565b91506200202c8262001fe7565b602082019050919050565b60006020820190508181036000830152620020528162002010565b9050919050565b60006200206682620018ae565b9050919050565b620020788162002059565b81146200208457600080fd5b50565b60008151905062002098816200206d565b92915050565b600060208284031215620020b757620020b662001884565b5b6000620020c78482850162002087565b91505092915050565b6000606082019050620020e760008301866200195d565b620020f660208301856200195d565b6200210560408301846200192f565b949350505050565b7f596f7520617265206e6f7420746865206e6f6e2070726f66697420636f756e6360008201527f696c000000000000000000000000000000000000000000000000000000000000602082015250565b60006200216b60228362001dce565b915062002178826200210d565b604082019050919050565b600060208201905081810360008301526200219e816200215c565b9050919050565b7f42616c616e6365206d7573742067726561746572207468616e20616d6f756e74600082015250565b6000620021dd60208362001dce565b9150620021ea82620021a5565b602082019050919050565b600060208201905081810360008301526200221081620021ce565b9050919050565b600081519050919050565b60005b838110156200224257808201518184015260208101905062002225565b8381111562002252576000848401525b50505050565b6000620022658262002217565b62002271818562001dce565b93506200228381856020860162002222565b6200228e8162001bcf565b840191505092915050565b600060a082019050620022b060008301886200195d565b620022bf60208301876200195d565b620022ce60408301866200195d565b8181036060830152620022e2818562002258565b9050620022f360808301846200192f565b9695505050505050565b7f596f7520617265206e6f742074686520696e746567726174696f6e20636f756e60008201527f63696c0000000000000000000000000000000000000000000000000000000000602082015250565b60006200235b60238362001dce565b91506200236882620022fd565b604082019050919050565b600060208201905081810360008301526200238e816200234c565b9050919050565b7f42616c616e6365206d7573742062652067726561746572207468616e20616d6f60008201527f756e740000000000000000000000000000000000000000000000000000000000602082015250565b6000620023f360238362001dce565b9150620024008262002395565b604082019050919050565b600060208201905081810360008301526200242681620023e4565b9050919050565b60006040820190506200244460008301856200195d565b6200245360208301846200192f565b9392505050565b60008115159050919050565b62002471816200245a565b81146200247d57600080fd5b50565b600081519050620024918162002466565b92915050565b600060208284031215620024b057620024af62001884565b5b6000620024c08482850162002480565b91505092915050565b7f5361666545524332303a204552433230206f7065726174696f6e20646964206e60008201527f6f74207375636365656400000000000000000000000000000000000000000000602082015250565b600062002527602a8362001dce565b91506200253482620024c9565b604082019050919050565b600060208201905081810360008301526200255a8162002518565b9050919050565b7f416464726573733a20696e73756666696369656e742062616c616e636520666f60008201527f722063616c6c0000000000000000000000000000000000000000000000000000602082015250565b6000620025bf60268362001dce565b9150620025cc8262002561565b604082019050919050565b60006020820190508181036000830152620025f281620025b0565b9050919050565b600081519050919050565b600081905092915050565b60006200261c82620025f9565b62002628818562002604565b93506200263a81856020860162002222565b80840191505092915050565b60006200265482846200260f565b915081905092915050565b7f416464726573733a2063616c6c20746f206e6f6e2d636f6e7472616374000000600082015250565b600062002697601d8362001dce565b9150620026a4826200265f565b602082019050919050565b60006020820190508181036000830152620026ca8162002688565b9050919050565b60006020820190508181036000830152620026ed818462002258565b90509291505056fe60c06040523480156200001157600080fd5b506040516200138838038062001388833981810160405281019062000037919062000111565b8173ffffffffffffffffffffffffffffffffffffffff1660808173ffffffffffffffffffffffffffffffffffffffff16815250508073ffffffffffffffffffffffffffffffffffffffff1660a08173ffffffffffffffffffffffffffffffffffffffff1681525050505062000158565b600080fd5b600073ffffffffffffffffffffffffffffffffffffffff82169050919050565b6000620000d982620000ac565b9050919050565b620000eb81620000cc565b8114620000f757600080fd5b50565b6000815190506200010b81620000e0565b92915050565b600080604083850312156200012b576200012a620000a7565b5b60006200013b85828601620000fa565b92505060206200014e85828601620000fa565b9150509250929050565b60805160a0516111d9620001af600039600081816101600152818161027f015281816102a3015281816103c20152610596015260008181610452015281816104f3015281816106f7015261077d01526111d96000f3fe608060405234801561001057600080fd5b506004361061007d5760003560e01c806363b6b31f1161005b57806363b6b31f146100d85780637aea5956146100f45780638d4af16e14610124578063fc0c546a146101405761007d565b80632e11f00a14610082578063481c6a751461009e57806350237c89146100bc575b600080fd5b61009c60048036038101906100979190610b1c565b61015e565b005b6100a661027d565b6040516100b39190610b58565b60405180910390f35b6100d660048036038101906100d19190610b1c565b6102a1565b005b6100f260048036038101906100ed9190610b1c565b6103c0565b005b61010e60048036038101906101099190610b1c565b610574565b60405161011b9190610b8e565b60405180910390f35b61013e60048036038101906101399190610bdf565b610594565b005b61014861077b565b6040516101559190610c91565b60405180910390f35b7f000000000000000000000000000000000000000000000000000000000000000073ffffffffffffffffffffffffffffffffffffffff163373ffffffffffffffffffffffffffffffffffffffff16146101ec576040517f08c379a00000000000000000000000000000000000000000000000000000000081526004016101e390610d09565b60405180910390fd5b60016000808373ffffffffffffffffffffffffffffffffffffffff1673ffffffffffffffffffffffffffffffffffffffff16815260200190815260200160002060006101000a81548160ff0219169083151502179055507f48cd054a0d5f7a715ef556531456f832fa4713887fd9619b1994499164bfdb34816040516102729190610b58565b60405180910390a150565b7f000000000000000000000000000000000000000000000000000000000000000081565b7f000000000000000000000000000000000000000000000000000000000000000073ffffffffffffffffffffffffffffffffffffffff163373ffffffffffffffffffffffffffffffffffffffff161461032f576040517f08c379a000000000000000000000000000000000000000000000000000000000815260040161032690610d09565b60405180910390fd5b60008060008373ffffffffffffffffffffffffffffffffffffffff1673ffffffffffffffffffffffffffffffffffffffff16815260200190815260200160002060006101000a81548160ff0219169083151502179055507ff4c0882c02504b57aef9b59434f24674dca5b42da5bc5a3da8782b4ec472f264816040516103b59190610b58565b60405180910390a150565b7f000000000000000000000000000000000000000000000000000000000000000073ffffffffffffffffffffffffffffffffffffffff163373ffffffffffffffffffffffffffffffffffffffff161461044e576040517f08c379a000000000000000000000000000000000000000000000000000000000815260040161044590610d09565b60405180910390fd5b60007f000000000000000000000000000000000000000000000000000000000000000073ffffffffffffffffffffffffffffffffffffffff166370a08231306040518263ffffffff1660e01b81526004016104a99190610b58565b602060405180830381865afa1580156104c6573d6000803e3d6000fd5b505050506040513d601f19601f820116820180604052508101906104ea9190610d3e565b905061053782827f000000000000000000000000000000000000000000000000000000000000000073ffffffffffffffffffffffffffffffffffffffff1661079f9092919063ffffffff16565b7f33f3dfe3a9fa76b24dccfdddcd960aabe6341398f61e0b841cb1874a9d129a178282604051610568929190610d7a565b60405180910390a15050565b60006020528060005260406000206000915054906101000a900460ff1681565b7f000000000000000000000000000000000000000000000000000000000000000073ffffffffffffffffffffffffffffffffffffffff163373ffffffffffffffffffffffffffffffffffffffff1614610622576040517f08c379a000000000000000000000000000000000000000000000000000000000815260040161061990610d09565b60405180910390fd5b6000808473ffffffffffffffffffffffffffffffffffffffff1673ffffffffffffffffffffffffffffffffffffffff16815260200190815260200160002060009054906101000a900460ff166106ad576040517f08c379a00000000000000000000000000000000000000000000000000000000081526004016106a490610def565b60405180910390fd5b600081116106f0576040517f08c379a00000000000000000000000000000000000000000000000000000000081526004016106e790610e5b565b60405180910390fd5b61073b83827f000000000000000000000000000000000000000000000000000000000000000073ffffffffffffffffffffffffffffffffffffffff1661079f9092919063ffffffff16565b7f38c2add40393f09414b9822c439c98b33304746fdd1a9a9d7c4653f35bf9082482848360405161076e93929190610e7b565b60405180910390a1505050565b7f000000000000000000000000000000000000000000000000000000000000000081565b6108208363a9059cbb60e01b84846040516024016107be929190610d7a565b604051602081830303815290604052907bffffffffffffffffffffffffffffffffffffffffffffffffffffffff19166020820180517bffffffffffffffffffffffffffffffffffffffffffffffffffffffff8381831617835250505050610825565b505050565b6000610887826040518060400160405280602081526020017f5361666545524332303a206c6f772d6c6576656c2063616c6c206661696c65648152508573ffffffffffffffffffffffffffffffffffffffff166108ec9092919063ffffffff16565b90506000815111156108e757808060200190518101906108a79190610ede565b6108e6576040517f08c379a00000000000000000000000000000000000000000000000000000000081526004016108dd90610f7d565b60405180910390fd5b5b505050565b60606108fb8484600085610904565b90509392505050565b606082471015610949576040517f08c379a00000000000000000000000000000000000000000000000000000000081526004016109409061100f565b60405180910390fd5b6000808673ffffffffffffffffffffffffffffffffffffffff16858760405161097291906110a9565b60006040518083038185875af1925050503d80600081146109af576040519150601f19603f3d011682016040523d82523d6000602084013e6109b4565b606091505b50915091506109c5878383876109d1565b92505050949350505050565b60608315610a33576000835103610a2b576109eb85610a46565b610a2a576040517f08c379a0000000000000000000000000000000000000000000000000000000008152600401610a219061110c565b60405180910390fd5b5b829050610a3e565b610a3d8383610a69565b5b949350505050565b6000808273ffffffffffffffffffffffffffffffffffffffff163b119050919050565b600082511115610a7c5781518083602001fd5b806040517f08c379a0000000000000000000000000000000000000000000000000000000008152600401610ab09190611181565b60405180910390fd5b600080fd5b600073ffffffffffffffffffffffffffffffffffffffff82169050919050565b6000610ae982610abe565b9050919050565b610af981610ade565b8114610b0457600080fd5b50565b600081359050610b1681610af0565b92915050565b600060208284031215610b3257610b31610ab9565b5b6000610b4084828501610b07565b91505092915050565b610b5281610ade565b82525050565b6000602082019050610b6d6000830184610b49565b92915050565b60008115159050919050565b610b8881610b73565b82525050565b6000602082019050610ba36000830184610b7f565b92915050565b6000819050919050565b610bbc81610ba9565b8114610bc757600080fd5b50565b600081359050610bd981610bb3565b92915050565b600080600060608486031215610bf857610bf7610ab9565b5b6000610c0686828701610b07565b9350506020610c1786828701610b07565b9250506040610c2886828701610bca565b9150509250925092565b6000819050919050565b6000610c57610c52610c4d84610abe565b610c32565b610abe565b9050919050565b6000610c6982610c3c565b9050919050565b6000610c7b82610c5e565b9050919050565b610c8b81610c70565b82525050565b6000602082019050610ca66000830184610c82565b92915050565b600082825260208201905092915050565b7f596f7520617265206e6f7420746865206d616e61676572000000000000000000600082015250565b6000610cf3601783610cac565b9150610cfe82610cbd565b602082019050919050565b60006020820190508181036000830152610d2281610ce6565b9050919050565b600081519050610d3881610bb3565b92915050565b600060208284031215610d5457610d53610ab9565b5b6000610d6284828501610d29565b91505092915050565b610d7481610ba9565b82525050565b6000604082019050610d8f6000830185610b49565b610d9c6020830184610d6b565b9392505050565b7f4e6f7420612077686974656c6973746564206e6f6e70726f6669740000000000600082015250565b6000610dd9601b83610cac565b9150610de482610da3565b602082019050919050565b60006020820190508181036000830152610e0881610dcc565b9050919050565b7f416d6f756e74206d7573742062652067726561746572207468616e2030000000600082015250565b6000610e45601d83610cac565b9150610e5082610e0f565b602082019050919050565b60006020820190508181036000830152610e7481610e38565b9050919050565b6000606082019050610e906000830186610b49565b610e9d6020830185610b49565b610eaa6040830184610d6b565b949350505050565b610ebb81610b73565b8114610ec657600080fd5b50565b600081519050610ed881610eb2565b92915050565b600060208284031215610ef457610ef3610ab9565b5b6000610f0284828501610ec9565b91505092915050565b7f5361666545524332303a204552433230206f7065726174696f6e20646964206e60008201527f6f74207375636365656400000000000000000000000000000000000000000000602082015250565b6000610f67602a83610cac565b9150610f7282610f0b565b604082019050919050565b60006020820190508181036000830152610f9681610f5a565b9050919050565b7f416464726573733a20696e73756666696369656e742062616c616e636520666f60008201527f722063616c6c0000000000000000000000000000000000000000000000000000602082015250565b6000610ff9602683610cac565b915061100482610f9d565b604082019050919050565b6000602082019050818103600083015261102881610fec565b9050919050565b600081519050919050565b600081905092915050565b60005b83811015611063578082015181840152602081019050611048565b83811115611072576000848401525b50505050565b60006110838261102f565b61108d818561103a565b935061109d818560208601611045565b80840191505092915050565b60006110b58284611078565b915081905092915050565b7f416464726573733a2063616c6c20746f206e6f6e2d636f6e7472616374000000600082015250565b60006110f6601d83610cac565b9150611101826110c0565b602082019050919050565b60006020820190508181036000830152611125816110e9565b9050919050565b600081519050919050565b6000601f19601f8301169050919050565b60006111538261112c565b61115d8185610cac565b935061116d818560208601611045565b61117681611137565b840191505092915050565b6000602082019050818103600083015261119b8184611148565b90509291505056fea2646970667358221220f407ab18fee59338e540ee84e33ff1378023886e20e478e19d8e239afb69a91b64736f6c634300080e0033a2646970667358221220d0cb59bb9d6d7645c729042d8c91546e41637e60d0c3d3103d4614b1f10a700664736f6c634300080e0033",
  "linkReferences": {},
  "deployedLinkReferences": {}
}